{
  "contractName": "BountyContract",
  "abi": [
    {
      "constant": false,
      "inputs": [],
      "name": "toggleContractActive",
      "outputs": [],
      "payable": false,
      "stateMutability": "nonpayable",
      "type": "function"
    },
    {
      "constant": false,
      "inputs": [],
      "name": "withdrawPayments",
      "outputs": [],
      "payable": false,
      "stateMutability": "nonpayable",
      "type": "function"
    },
    {
      "constant": false,
      "inputs": [],
      "name": "renounceOwnership",
      "outputs": [],
      "payable": false,
      "stateMutability": "nonpayable",
      "type": "function"
    },
    {
      "constant": false,
      "inputs": [],
      "name": "destroy",
      "outputs": [],
      "payable": false,
      "stateMutability": "nonpayable",
      "type": "function"
    },
    {
      "constant": true,
      "inputs": [],
      "name": "owner",
      "outputs": [
        {
          "name": "",
          "type": "address"
        }
      ],
      "payable": false,
      "stateMutability": "view",
      "type": "function"
    },
    {
      "constant": true,
      "inputs": [
        {
          "name": "_dest",
          "type": "address"
        }
      ],
      "name": "payments",
      "outputs": [
        {
          "name": "",
          "type": "uint256"
        }
      ],
      "payable": false,
      "stateMutability": "view",
      "type": "function"
    },
    {
      "constant": false,
      "inputs": [
        {
          "name": "_newOwner",
          "type": "address"
        }
      ],
      "name": "transferOwnership",
      "outputs": [],
      "payable": false,
      "stateMutability": "nonpayable",
      "type": "function"
    },
    {
      "constant": false,
      "inputs": [
        {
          "name": "_recipient",
          "type": "address"
        }
      ],
      "name": "destroyAndSend",
      "outputs": [],
      "payable": false,
      "stateMutability": "nonpayable",
      "type": "function"
    },
    {
      "inputs": [],
      "payable": false,
      "stateMutability": "nonpayable",
      "type": "constructor"
    },
    {
      "anonymous": false,
      "inputs": [
        {
          "indexed": true,
          "name": "previousOwner",
          "type": "address"
        }
      ],
      "name": "OwnershipRenounced",
      "type": "event"
    },
    {
      "anonymous": false,
      "inputs": [
        {
          "indexed": true,
          "name": "previousOwner",
          "type": "address"
        },
        {
          "indexed": true,
          "name": "newOwner",
          "type": "address"
        }
      ],
      "name": "OwnershipTransferred",
      "type": "event"
    },
    {
      "constant": false,
      "inputs": [
        {
          "name": "desc",
          "type": "bytes32"
        },
        {
          "name": "bountyAmt",
          "type": "uint32"
        }
      ],
      "name": "createBounty",
      "outputs": [
        {
          "name": "",
          "type": "uint256"
        }
      ],
      "payable": false,
      "stateMutability": "nonpayable",
      "type": "function"
    },
    {
      "constant": true,
      "inputs": [
        {
          "name": "bountyId",
          "type": "uint256"
        }
      ],
      "name": "getBounty",
      "outputs": [
        {
          "name": "",
          "type": "address"
        },
        {
          "name": "",
          "type": "bytes32"
        },
        {
          "name": "",
          "type": "uint256"
        },
        {
          "name": "",
          "type": "uint256"
        }
      ],
      "payable": false,
      "stateMutability": "view",
      "type": "function"
    },
    {
      "constant": true,
      "inputs": [],
      "name": "returnBountiesCount",
      "outputs": [
        {
          "name": "",
          "type": "uint256"
        }
      ],
      "payable": false,
      "stateMutability": "view",
      "type": "function"
    },
    {
      "constant": false,
      "inputs": [
        {
          "name": "bountyId",
          "type": "uint256"
        },
        {
          "name": "answer",
          "type": "bytes32"
        }
      ],
      "name": "createSolution",
      "outputs": [
        {
          "name": "",
          "type": "uint256"
        }
      ],
      "payable": false,
      "stateMutability": "nonpayable",
      "type": "function"
    },
    {
      "constant": true,
      "inputs": [
        {
          "name": "bountyId",
          "type": "uint256"
        },
        {
          "name": "solutionId",
          "type": "uint256"
        }
      ],
      "name": "getSolution",
      "outputs": [
        {
          "name": "",
          "type": "address"
        },
        {
          "name": "",
          "type": "bytes32"
        },
        {
          "name": "",
          "type": "bool"
        }
      ],
      "payable": false,
      "stateMutability": "view",
      "type": "function"
    },
    {
      "constant": true,
      "inputs": [
        {
          "name": "bountyId",
          "type": "uint256"
        }
      ],
      "name": "returnSolutionsCount",
      "outputs": [
        {
          "name": "",
          "type": "uint256"
        }
      ],
      "payable": false,
      "stateMutability": "view",
      "type": "function"
    },
    {
      "constant": false,
      "inputs": [
        {
          "name": "bountyId",
          "type": "uint256"
        },
        {
          "name": "solutionId",
          "type": "uint256"
        }
      ],
      "name": "markSolutionAccepted",
      "outputs": [],
      "payable": false,
      "stateMutability": "nonpayable",
      "type": "function"
    },
    {
      "constant": false,
      "inputs": [
        {
          "name": "bountyId",
          "type": "uint256"
        },
        {
          "name": "solutionId",
          "type": "uint256"
        }
      ],
      "name": "awardBounty",
      "outputs": [],
      "payable": false,
      "stateMutability": "nonpayable",
      "type": "function"
    },
    {
      "constant": false,
      "inputs": [
        {
          "name": "bountyId",
          "type": "uint256"
        },
        {
          "name": "solutionId",
          "type": "uint256"
        }
      ],
      "name": "withdrawBountyWinnings",
      "outputs": [],
      "payable": false,
      "stateMutability": "nonpayable",
      "type": "function"
    },
    {
      "constant": true,
      "inputs": [
        {
          "name": "bountyId",
          "type": "uint256"
        },
        {
          "name": "solutionId",
          "type": "uint256"
        }
      ],
      "name": "checkBountyWinnings",
      "outputs": [],
      "payable": false,
      "stateMutability": "view",
      "type": "function"
    },
    {
      "constant": false,
      "inputs": [],
      "name": "withdrawAll",
      "outputs": [],
      "payable": false,
      "stateMutability": "nonpayable",
      "type": "function"
    }
  ],
  "bytecode": "0x60806040526000600160146101000a81548160ff02191690831515021790555034801561002b57600080fd5b50610034610158565b604051809103906000f080158015610050573d6000803e3d6000fd5b506000806101000a81548173ffffffffffffffffffffffffffffffffffffffff021916908373ffffffffffffffffffffffffffffffffffffffff16021790555033600160006101000a81548173ffffffffffffffffffffffffffffffffffffffff021916908373ffffffffffffffffffffffffffffffffffffffff16021790555033600260006101000a81548173ffffffffffffffffffffffffffffffffffffffff021916908373ffffffffffffffffffffffffffffffffffffffff16021790555033600360006101000a81548173ffffffffffffffffffffffffffffffffffffffff021916908373ffffffffffffffffffffffffffffffffffffffff160217905550610168565b60405161085180611b9683390190565b611a1f806101776000396000f300608060405260043610610107576000357c0100000000000000000000000000000000000000000000000000000000900463ffffffff1680631385d24c1461010c57806327af4257146101235780632ceba5761461015a57806337eccd8a146101915780634b3c0ff6146101c85780636103d70b14610217578063715018a61461022e57806371a569e61461024557806383197ef01461027c578063853828b6146102935780638b823cc5146102aa5780638da5cb5b146102eb5780639aacb18c146103425780639d8b8479146103d3578063d9cd7ab8146103fe578063e2982c2114610453578063ee8c4bbf146104aa578063f2fde38b14610534578063f5074f4114610577575b600080fd5b34801561011857600080fd5b506101216105ba565b005b34801561012f57600080fd5b5061015860048036038101908080359060200190929190803590602001909291905050506106ab565b005b34801561016657600080fd5b5061018f60048036038101908080359060200190929190803590602001909291905050506106ef565b005b34801561019d57600080fd5b506101c660048036038101908080359060200190929190803590602001909291905050506108ae565b005b3480156101d457600080fd5b50610201600480360381019080803590602001909291908035600019169060200190929190505050610abc565b6040518082815260200191505060405180910390f35b34801561022357600080fd5b5061022c610c0a565b005b34801561023a57600080fd5b50610243610ce6565b005b34801561025157600080fd5b5061027a6004803603810190808035906020019092919080359060200190929190505050610e54565b005b34801561028857600080fd5b5061029161114b565b005b34801561029f57600080fd5b506102a861124b565b005b3480156102b657600080fd5b506102d56004803603810190808035906020019092919050505061126b565b6040518082815260200191505060405180910390f35b3480156102f757600080fd5b50610300611288565b604051808273ffffffffffffffffffffffffffffffffffffffff1673ffffffffffffffffffffffffffffffffffffffff16815260200191505060405180910390f35b34801561034e57600080fd5b5061037760048036038101908080359060200190929190803590602001909291905050506112ae565b604051808473ffffffffffffffffffffffffffffffffffffffff1673ffffffffffffffffffffffffffffffffffffffff168152602001836000191660001916815260200182151515158152602001935050505060405180910390f35b3480156103df57600080fd5b506103e8611365565b6040518082815260200191505060405180910390f35b34801561040a57600080fd5b5061043d6004803603810190808035600019169060200190929190803563ffffffff16906020019092919050505061136f565b6040518082815260200191505060405180910390f35b34801561045f57600080fd5b50610494600480360381019080803573ffffffffffffffffffffffffffffffffffffffff1690602001909291905050506114ad565b6040518082815260200191505060405180910390f35b3480156104b657600080fd5b506104d5600480360381019080803590602001909291905050506115ad565b604051808573ffffffffffffffffffffffffffffffffffffffff1673ffffffffffffffffffffffffffffffffffffffff168152602001846000191660001916815260200183815260200182815260200194505050505060405180910390f35b34801561054057600080fd5b50610575600480360381019080803573ffffffffffffffffffffffffffffffffffffffff16906020019092919050505061166f565b005b34801561058357600080fd5b506105b8600480360381019080803573ffffffffffffffffffffffffffffffffffffffff169060200190929190505050611740565b005b600260009054906101000a900473ffffffffffffffffffffffffffffffffffffffff1673ffffffffffffffffffffffffffffffffffffffff163373ffffffffffffffffffffffffffffffffffffffff1614151561067f576040517f08c379a00000000000000000000000000000000000000000000000000000000081526004018080602001828103825260138152602001807f53656e646572206973206e6f742041646d696e0000000000000000000000000081525060200191505060405180910390fd5b600160149054906101000a900460ff1615600160146101000a81548160ff021916908315150217905550565b600160066000848152602001908152602001600020600083815260200190815260200160002060030160006101000a81548160ff0219169083151502179055505050565b600360009054906101000a900473ffffffffffffffffffffffffffffffffffffffff1673ffffffffffffffffffffffffffffffffffffffff163373ffffffffffffffffffffffffffffffffffffffff161415156107b4576040517f08c379a00000000000000000000000000000000000000000000000000000000081526004018080602001828103825260138152602001807f53656e646572206973206e6f74206f776e65720000000000000000000000000081525060200191505060405180910390fd5b818160066000838152602001908152602001600020600082815260200190815260200160002060010160009054906101000a900473ffffffffffffffffffffffffffffffffffffffff1673ffffffffffffffffffffffffffffffffffffffff163373ffffffffffffffffffffffffffffffffffffffff161415156108a0576040517f08c379a000000000000000000000000000000000000000000000000000000000815260040180806020018281038252601b8152602001807f53656e646572206973206e6f7420426f756e74792048756e746572000000000081525060200191505060405180910390fd5b6108a8610c0a565b50505050565b6000600360009054906101000a900473ffffffffffffffffffffffffffffffffffffffff1673ffffffffffffffffffffffffffffffffffffffff163373ffffffffffffffffffffffffffffffffffffffff16141515610975576040517f08c379a00000000000000000000000000000000000000000000000000000000081526004018080602001828103825260138152602001807f53656e646572206973206e6f74206f776e65720000000000000000000000000081525060200191505060405180910390fd5b828260066000838152602001908152602001600020600082815260200190815260200160002060010160009054906101000a900473ffffffffffffffffffffffffffffffffffffffff1673ffffffffffffffffffffffffffffffffffffffff163373ffffffffffffffffffffffffffffffffffffffff16141515610a61576040517f08c379a000000000000000000000000000000000000000000000000000000000815260040180806020018281038252601b8152602001807f53656e646572206973206e6f7420426f756e74792048756e746572000000000081525060200191505060405180910390fd5b60066000868152602001908152602001600020600085815260200190815260200160002060010160009054906101000a900473ffffffffffffffffffffffffffffffffffffffff169250610ab4836114ad565b505050505050565b6000608060405190810160405280600760008681526020019081526020016000205481526020013373ffffffffffffffffffffffffffffffffffffffff1681526020018360001916815260200160001515815250600660008581526020019081526020016000206000600760008781526020019081526020016000205481526020019081526020016000206000820151816000015560208201518160010160006101000a81548173ffffffffffffffffffffffffffffffffffffffff021916908373ffffffffffffffffffffffffffffffffffffffff1602179055506040820151816002019060001916905560608201518160030160006101000a81548160ff02191690831515021790555090505060076000848152602001908152602001600020600081548092919060010191905055506007600084815260200190815260200160002054905092915050565b60003390506000809054906101000a900473ffffffffffffffffffffffffffffffffffffffff1673ffffffffffffffffffffffffffffffffffffffff166351cff8d9826040518263ffffffff167c0100000000000000000000000000000000000000000000000000000000028152600401808273ffffffffffffffffffffffffffffffffffffffff1673ffffffffffffffffffffffffffffffffffffffff168152602001915050600060405180830381600087803b158015610ccb57600080fd5b505af1158015610cdf573d6000803e3d6000fd5b5050505050565b600360009054906101000a900473ffffffffffffffffffffffffffffffffffffffff1673ffffffffffffffffffffffffffffffffffffffff163373ffffffffffffffffffffffffffffffffffffffff16141515610dab576040517f08c379a00000000000000000000000000000000000000000000000000000000081526004018080602001828103825260138152602001807f53656e646572206973206e6f74206f776e65720000000000000000000000000081525060200191505060405180910390fd5b600160009054906101000a900473ffffffffffffffffffffffffffffffffffffffff1673ffffffffffffffffffffffffffffffffffffffff167ff8df31144d9c2f0f6b59d69b8b98abd5459d07f2742c4df920b25aae33c6482060405160405180910390a26000600160006101000a81548173ffffffffffffffffffffffffffffffffffffffff021916908373ffffffffffffffffffffffffffffffffffffffff160217905550565b600080600360009054906101000a900473ffffffffffffffffffffffffffffffffffffffff1673ffffffffffffffffffffffffffffffffffffffff163373ffffffffffffffffffffffffffffffffffffffff16141515610f1c576040517f08c379a00000000000000000000000000000000000000000000000000000000081526004018080602001828103825260138152602001807f53656e646572206973206e6f74206f776e65720000000000000000000000000081525060200191505060405180910390fd5b600160149054906101000a900460ff16151561114557836004600082815260200190815260200160002060010160009054906101000a900473ffffffffffffffffffffffffffffffffffffffff1673ffffffffffffffffffffffffffffffffffffffff163373ffffffffffffffffffffffffffffffffffffffff1614151561100c576040517f08c379a000000000000000000000000000000000000000000000000000000000815260040180806020018281038252601c8152602001807f53656e646572206973206e6f7420426f756e74792063726561746f720000000081525060200191505060405180910390fd5b84846001151560066000848152602001908152602001600020600083815260200190815260200160002060030160009054906101000a900460ff1615151415156110be576040517f08c379a00000000000000000000000000000000000000000000000000000000081526004018080602001828103825260188152602001807f536f6c7574696f6e206973206e6f74206163636570746564000000000000000081525060200191505060405180910390fd5b60066000888152602001908152602001600020600087815260200190815260200160002060010160009054906101000a900473ffffffffffffffffffffffffffffffffffffffff1694506004600088815260200190815260200160002060030160009054906101000a900463ffffffff169350611141858563ffffffff1661181e565b5050505b50505050565b600360009054906101000a900473ffffffffffffffffffffffffffffffffffffffff1673ffffffffffffffffffffffffffffffffffffffff163373ffffffffffffffffffffffffffffffffffffffff16141515611210576040517f08c379a00000000000000000000000000000000000000000000000000000000081526004018080602001828103825260138152602001807f53656e646572206973206e6f74206f776e65720000000000000000000000000081525060200191505060405180910390fd5b600160009054906101000a900473ffffffffffffffffffffffffffffffffffffffff1673ffffffffffffffffffffffffffffffffffffffff16ff5b600160149054906101000a900460ff16156112695761126861124b565b5b565b600060076000838152602001908152602001600020549050919050565b600160009054906101000a900473ffffffffffffffffffffffffffffffffffffffff1681565b600080600060066000868152602001908152602001600020600085815260200190815260200160002060010160009054906101000a900473ffffffffffffffffffffffffffffffffffffffff166006600087815260200190815260200160002060008681526020019081526020016000206002015460066000888152602001908152602001600020600087815260200190815260200160002060030160009054906101000a900460ff169250925092509250925092565b6000600554905090565b600060a06040519081016040528060055481526020013373ffffffffffffffffffffffffffffffffffffffff168152602001846000191681526020018363ffffffff168152602001600060018111156113c457fe5b8152506004600060055481526020019081526020016000206000820151816000015560208201518160010160006101000a81548173ffffffffffffffffffffffffffffffffffffffff021916908373ffffffffffffffffffffffffffffffffffffffff1602179055506040820151816002019060001916905560608201518160030160006101000a81548163ffffffff021916908363ffffffff16021790555060808201518160030160046101000a81548160ff0219169083600181111561148857fe5b0217905550905050600560008154809291906001019190505550600554905092915050565b60008060009054906101000a900473ffffffffffffffffffffffffffffffffffffffff1673ffffffffffffffffffffffffffffffffffffffff1663e3a9db1a836040518263ffffffff167c0100000000000000000000000000000000000000000000000000000000028152600401808273ffffffffffffffffffffffffffffffffffffffff1673ffffffffffffffffffffffffffffffffffffffff168152602001915050602060405180830381600087803b15801561156b57600080fd5b505af115801561157f573d6000803e3d6000fd5b505050506040513d602081101561159557600080fd5b81019080805190602001909291905050509050919050565b6000806000806004600086815260200190815260200160002060010160009054906101000a900473ffffffffffffffffffffffffffffffffffffffff1660046000878152602001908152602001600020600201546004600088815260200190815260200160002060030160009054906101000a900463ffffffff166004600089815260200190815260200160002060030160049054906101000a900460ff16600181111561165757fe5b8163ffffffff16915093509350935093509193509193565b600360009054906101000a900473ffffffffffffffffffffffffffffffffffffffff1673ffffffffffffffffffffffffffffffffffffffff163373ffffffffffffffffffffffffffffffffffffffff16141515611734576040517f08c379a00000000000000000000000000000000000000000000000000000000081526004018080602001828103825260138152602001807f53656e646572206973206e6f74206f776e65720000000000000000000000000081525060200191505060405180910390fd5b61173d816118f7565b50565b600360009054906101000a900473ffffffffffffffffffffffffffffffffffffffff1673ffffffffffffffffffffffffffffffffffffffff163373ffffffffffffffffffffffffffffffffffffffff16141515611805576040517f08c379a00000000000000000000000000000000000000000000000000000000081526004018080602001828103825260138152602001807f53656e646572206973206e6f74206f776e65720000000000000000000000000081525060200191505060405180910390fd5b8073ffffffffffffffffffffffffffffffffffffffff16ff5b6000809054906101000a900473ffffffffffffffffffffffffffffffffffffffff1673ffffffffffffffffffffffffffffffffffffffff1663f340fa0182846040518363ffffffff167c0100000000000000000000000000000000000000000000000000000000028152600401808273ffffffffffffffffffffffffffffffffffffffff1673ffffffffffffffffffffffffffffffffffffffff1681526020019150506000604051808303818588803b1580156118da57600080fd5b505af11580156118ee573d6000803e3d6000fd5b50505050505050565b600073ffffffffffffffffffffffffffffffffffffffff168173ffffffffffffffffffffffffffffffffffffffff161415151561193357600080fd5b8073ffffffffffffffffffffffffffffffffffffffff16600160009054906101000a900473ffffffffffffffffffffffffffffffffffffffff1673ffffffffffffffffffffffffffffffffffffffff167f8be0079c531659141344cd1fd0a4f28419497f9722a3daafe3b4186f6b6457e060405160405180910390a380600160006101000a81548173ffffffffffffffffffffffffffffffffffffffff021916908373ffffffffffffffffffffffffffffffffffffffff160217905550505600a165627a7a72305820fc725fc20a4fd982f1748b29943eeb938da38a91edfd35dca1f465090edfca4800296080604052336000806101000a81548173ffffffffffffffffffffffffffffffffffffffff021916908373ffffffffffffffffffffffffffffffffffffffff1602179055506107fe806100536000396000f300608060405260043610610078576000357c0100000000000000000000000000000000000000000000000000000000900463ffffffff16806351cff8d91461007d578063715018a6146100c05780638da5cb5b146100d7578063e3a9db1a1461012e578063f2fde38b14610185578063f340fa01146101c8575b600080fd5b34801561008957600080fd5b506100be600480360381019080803573ffffffffffffffffffffffffffffffffffffffff1690602001909291905050506101fe565b005b3480156100cc57600080fd5b506100d561039e565b005b3480156100e357600080fd5b506100ec6104a0565b604051808273ffffffffffffffffffffffffffffffffffffffff1673ffffffffffffffffffffffffffffffffffffffff16815260200191505060405180910390f35b34801561013a57600080fd5b5061016f600480360381019080803573ffffffffffffffffffffffffffffffffffffffff1690602001909291905050506104c5565b6040518082815260200191505060405180910390f35b34801561019157600080fd5b506101c6600480360381019080803573ffffffffffffffffffffffffffffffffffffffff16906020019092919050505061050e565b005b6101fc600480360381019080803573ffffffffffffffffffffffffffffffffffffffff169060200190929190505050610575565b005b60008060009054906101000a900473ffffffffffffffffffffffffffffffffffffffff1673ffffffffffffffffffffffffffffffffffffffff163373ffffffffffffffffffffffffffffffffffffffff1614151561025b57600080fd5b600160008373ffffffffffffffffffffffffffffffffffffffff1673ffffffffffffffffffffffffffffffffffffffff168152602001908152602001600020549050803073ffffffffffffffffffffffffffffffffffffffff1631101515156102c057fe5b6000600160008473ffffffffffffffffffffffffffffffffffffffff1673ffffffffffffffffffffffffffffffffffffffff168152602001908152602001600020819055508173ffffffffffffffffffffffffffffffffffffffff166108fc829081150290604051600060405180830381858888f1935050505015801561034b573d6000803e3d6000fd5b508173ffffffffffffffffffffffffffffffffffffffff167f7084f5476618d8e60b11ef0d7d3f06914655adb8793e28ff7f018d4c76d505d5826040518082815260200191505060405180910390a25050565b6000809054906101000a900473ffffffffffffffffffffffffffffffffffffffff1673ffffffffffffffffffffffffffffffffffffffff163373ffffffffffffffffffffffffffffffffffffffff161415156103f957600080fd5b6000809054906101000a900473ffffffffffffffffffffffffffffffffffffffff1673ffffffffffffffffffffffffffffffffffffffff167ff8df31144d9c2f0f6b59d69b8b98abd5459d07f2742c4df920b25aae33c6482060405160405180910390a260008060006101000a81548173ffffffffffffffffffffffffffffffffffffffff021916908373ffffffffffffffffffffffffffffffffffffffff160217905550565b6000809054906101000a900473ffffffffffffffffffffffffffffffffffffffff1681565b6000600160008373ffffffffffffffffffffffffffffffffffffffff1673ffffffffffffffffffffffffffffffffffffffff168152602001908152602001600020549050919050565b6000809054906101000a900473ffffffffffffffffffffffffffffffffffffffff1673ffffffffffffffffffffffffffffffffffffffff163373ffffffffffffffffffffffffffffffffffffffff1614151561056957600080fd5b610572816106bc565b50565b60008060009054906101000a900473ffffffffffffffffffffffffffffffffffffffff1673ffffffffffffffffffffffffffffffffffffffff163373ffffffffffffffffffffffffffffffffffffffff161415156105d257600080fd5b34905061062781600160008573ffffffffffffffffffffffffffffffffffffffff1673ffffffffffffffffffffffffffffffffffffffff168152602001908152602001600020546107b690919063ffffffff16565b600160008473ffffffffffffffffffffffffffffffffffffffff1673ffffffffffffffffffffffffffffffffffffffff168152602001908152602001600020819055508173ffffffffffffffffffffffffffffffffffffffff167f2da466a7b24304f47e87fa2e1e5a81b9831ce54fec19055ce277ca2f39ba42c4826040518082815260200191505060405180910390a25050565b600073ffffffffffffffffffffffffffffffffffffffff168173ffffffffffffffffffffffffffffffffffffffff16141515156106f857600080fd5b8073ffffffffffffffffffffffffffffffffffffffff166000809054906101000a900473ffffffffffffffffffffffffffffffffffffffff1673ffffffffffffffffffffffffffffffffffffffff167f8be0079c531659141344cd1fd0a4f28419497f9722a3daafe3b4186f6b6457e060405160405180910390a3806000806101000a81548173ffffffffffffffffffffffffffffffffffffffff021916908373ffffffffffffffffffffffffffffffffffffffff16021790555050565b600081830190508281101515156107c957fe5b809050929150505600a165627a7a72305820a8333978a04b9636bfdfc536555fb62846951ae6f4cc05770e3cc629a1c8e16f0029",
  "source": "pragma solidity ^0.4.24;\n\nimport \"./CircuitBreakerContract.sol\";\nimport \"../node_modules/openzeppelin-solidity/contracts/payment/PullPayment.sol\";\n\ncontract BountyContract is PullPayment, CircuitBreakerContract {\n\n  address private owner;\n\n  constructor() public {\n    owner = msg.sender;\n  }\n\n  enum BountyStage {\n    Open,\n    Closed\n  }\n\n  struct Bounty {\n    uint bountyId;\n    address creator;\n    bytes32 desc;\n    uint32 bountyAmt;\n    BountyStage bountyStage;\n  }\n\n  mapping (uint => Bounty) bounties;\n  uint numBounties;\n\n  struct Solution {\n    uint solutionId;\n    address hunter;\n    bytes32 answer;\n    bool accepted;\n  }\n\n  mapping (uint => mapping(uint => Solution)) solutions;\n  mapping (uint => uint) numSolutions;\n\n  /// CRUD on Bounties ///\n\n  function createBounty(bytes32 desc, uint32 bountyAmt) public returns (uint) {\n    bounties[numBounties] = Bounty(numBounties, msg.sender, desc, bountyAmt, BountyStage.Open);\n    numBounties++;\n    return numBounties;\n  }\n  \n  function getBounty(uint bountyId) public view returns (address, bytes32, uint, uint) {\n    return (bounties[bountyId].creator, bounties[bountyId].desc, bounties[bountyId].bountyAmt, uint(bounties[bountyId].bountyStage));\n  }\n\n  function returnBountiesCount() public view returns (uint) {\n    return numBounties;\n  }\n\n  /// CRUD on Solutions ///\n\n  function createSolution(uint bountyId, bytes32 answer) public returns (uint) {\n    solutions[bountyId][numSolutions[bountyId]] = Solution(numSolutions[bountyId], msg.sender, answer, false);\n    numSolutions[bountyId]++;\n    return numSolutions[bountyId];\n  }\n\n  function getSolution(uint bountyId, uint solutionId) public view returns (address, bytes32, bool) {\n    return (solutions[bountyId][solutionId].hunter, solutions[bountyId][solutionId].answer, solutions[bountyId][solutionId].accepted);\n  }\n\n  function returnSolutionsCount(uint bountyId) public view returns (uint) {\n    return numSolutions[bountyId];\n  }\n\n  function markSolutionAccepted(uint bountyId, uint solutionId) public {\n    solutions[bountyId][solutionId].accepted = true;\n  }\n\n  ///MODIFIERS///\n\n  modifier onlyOwner() {\n    require(msg.sender == owner, \"Sender is not owner\");\n    _;\n  }\n\n  modifier onlyCreator(uint bountyId) {\n    require(msg.sender == bounties[bountyId].creator, \"Sender is not Bounty creator\");\n    _;\n  }\n\n  modifier onlyHunter(uint bountyId, uint solutionId) {\n    require(msg.sender == solutions[bountyId][solutionId].hunter, \"Sender is not Bounty Hunter\");\n    _;\n  }\n\n  modifier onlyAcceptedSolution(uint bountyId, uint solutionId) {\n    require(solutions[bountyId][solutionId].accepted == true, \"Solution is not accepted\");\n    _;\n  }\n\n\n/// Bounty Payment Operations ///\n\n  function awardBounty(uint bountyId, uint solutionId) external onlyOwner stopInEmergency \n  onlyCreator(bountyId) onlyAcceptedSolution(bountyId, solutionId) {\n    address bountyWinner = solutions[bountyId][solutionId].hunter;\n    uint32 bountyAmount = bounties[bountyId].bountyAmt;\n    asyncTransfer(bountyWinner, bountyAmount);\n  }\n\n  function withdrawBountyWinnings(uint bountyId, uint solutionId) external onlyOwner onlyHunter(bountyId, solutionId) {\n    withdrawPayments();\n  }\n\n  function checkBountyWinnings(uint bountyId, uint solutionId) external view onlyOwner onlyHunter(bountyId, solutionId) {\n    address bountyHunter = solutions[bountyId][solutionId].hunter;\n    payments(bountyHunter);\n  }\n\n  function withdrawAll() public onlyInEmergency {\n    withdrawAll();\n  } \n  \n}\n",
  "sourcePath": "/Users/sandhya/Documents/repos/bountyDApp/contracts/BountyContract.sol",
  "compiler": {
    "name": "solc",
    "version": "0.4.24+commit.e67f0147.Emscripten.clang"
  },
  "schemaVersion": "2.0.1",
  "updatedAt": "2018-08-17T08:29:59.295Z"
}